:020000040800F2
:1000000000080020D50200086338000859370008AE
:1000100061380008DD2500088B3B00080000000067
:10002000000000000000000000000000113900087E
:100030003127000800000000653800081339000867
:10004000EF020008EF020008EF020008EF020008CC
:10005000EF020008EF020008EF020008EF020008BC
:10006000EF020008EF020008EF020008EF020008AC
:10007000EF020008EF020008EF020008EF0200089C
:10008000EF020008EF020008EF020008EF0200088C
:10009000EF020008EF020008EF020008EF0200087C
:1000A000EF020008EF020008EF020008EF0200086C
:1000B000EF020008EF020008EF020008EF0200085C
:1000C000EF020008EF020008EF020008EF0200084C
:1000D000EF020008EF020008EF020008EF0200083C
:1000E000EF020008EF020008EF020008EF0200082C
:1000F000EF020008EF020008EF020008EF0200081C
:10010000EF020008EF020008EF020008EF0200080B
:10011000EF020008EF020008EF020008EF020008FB
:10012000EF020008EF020008EF020008EF020008EB
:10013000EF020008EF020008EF020008EF020008DB
:10014000EF020008EF020008EF020008EF020008CB
:10015000EF020008EF020008EF020008EF020008BB
:10016000EF020008EF020008EF020008EF020008AB
:10017000EF020008EF020008EF0200080000000094
:10018000EF020008EF02000800F002F800F092F819
:100190000AA090E8000C82448344AAF10107DA45E2
:1001A00001D100F087F8AFF2090EBAE80F0013F0A2
:1001B000010F18BFFB1A43F0010318474C3C000025
:1001C0006C3C0000103A24BF78C878C1FAD85207B6
:1001D00024BF30C830C144BF04680C6070470000C1
:1001E0000023002400250026103A28BF78C1FBD840
:1001F000520728BF30C148BF0B6070476E2900F01E
:10020000FD81702900F03F83662903F0468565294A
:1002100003F04385672903F04085612903F03F859A
:1002200003681B0A28BF41F08001692900F0AA81F8
:10023000642900F0A781752900F0A4816F2900F0DE
:10024000CC82782900F00B83E92900F06782E42949
:1002500000F06482F52900F06182EF2900F0C98284
:10026000F82900F00A830368DB0928BF41F0800108
:10027000632901F00D80732901F01280E32901F058
:100280001D80F32901F02280002070471FB503F084
:10029000FFFC01F06DF804000020002103F0E2FCF7
:1002A000401C60600020002103F0C6FCE0601FBD20
:1002B00010B510BD01F02EF81146FFF7E7FF03F06F
:1002C00095FC01F00BF903B4FFF7F2FF03BC01F05A
:1002D00053F900000948804709480047FEE7FEE758
:1002E000FEE7FEE7FEE7FEE7FEE7FEE7FEE7FEE7E6
:1002F00004480549054A064B70470000AD3900081F
:1003000089010008000200200008002000040020ED
:100310000004002053EA020C00F069802DE9F04B44
:100320004FF00006002B1FBFB3FA83F503FA05F464
:1003300024FA05F65E4012BF1643B2FA82F502FABD
:1003400005F4C5F120051EBF22FA05FC44EA0C04A1
:10035000203556EA044C4FEA144418BF641C4FF091
:1003600000084FF00009904271EB030C39D30029CB
:1003700019BFB1FA81F701FA07F6B0FA80F700FA6F
:1003800007F6C7F120071EBF20FA07FC46EA0C0655
:100390002037B6FBF4FCA7EB0507103F07F01F0B57
:1003A000CBF120060CFA0BFB2CFA06F644BFB34641
:1003B0000026202FA4BF5E464FF0000B5BEA060C20
:1003C00008BF4FF0010B19EB0B09ABFB027C48EBAC
:1003D0000608C01B06FB02CC0BFB03CC71EB0C0127
:1003E000C1E70B46024641464846BDE8F08B13B5CF
:1003F0004FF000004FF00001AFF30080BDE81C405B
:10040000704700001CB50C46064B7B4469460090C3
:10041000204600F00CF904460020694600F01AF965
:1004200020461CBD470200004FF000020429C0F026
:10043000128010F0030C00F01B80CCF1040CBCF116
:10044000020F18BF00F8012BA8BF20F8022BA1EB68
:100450000C0100F00DB85FEAC17C24BF00F8012B4D
:1004600000F8012B48BF00F8012B70474FF0000245
:1004700000B5134694469646203922BFA0E80C509A
:10048000A0E80C50B1F12001BFF4F7AF090728BF75
:10049000A0E80C5048BF0CC05DF804EB890028BFF1
:1004A00040F8042B08BF704748BF20F8022B11F01A
:1004B000804F18BF00F8012B704770477047704796
:1004C00070B5044685690068C10601D5302600E094
:1004D0002026C00707D070BDD4E9012130469047DF
:1004E000206A401C20626D1EF6D570BD70B50446B2
:1004F00085690078C00707D170BDD4E901212020AB
:100500009047206A401C20626D1EF6D570BD0968B8
:100510004A0501D540B27047C905FCD500B2704705
:1005200009684A0501D5C0B27047C905FCD580B23B
:10053000704770B50C460546012A05D0287880061C
:1005400000D5EA69002302E0012305E05B1C934229
:1005500002D2E05C0028F9D1A869E618C01AA861A7
:10056000286A184428622846FFF7AAFF04E0D5E964
:10057000012114F8010B9047B442F8D32846FFF745
:10058000B5FF70BD2DE9F0410646002410687529BD
:10059000314616A510D0FFF7BAFF002802DA404214
:1005A00013A507E031688A0701D512A502E04907C3
:1005B00004D511A5012401E0FFF7B2FF00210A22B2
:1005C00006F1240709E0B0FBF2FCB0FBF2F302FBFA
:1005D0001C00303078541846491C0028F3D12346BB
:1005E0002A463046BDE8F04100F061BA0000000044
:1005F0002D0000002B0000002000000011680268A0
:10060000006A530501D508700AE0D30501D50880BA
:1006100006E0130603D5C217C1E9000200E0086036
:100620000120704701694A1C02610878704700B5D3
:100630008FB0CDE901310021059105497944CDE91B
:1006400003101146684600F029F90FB000BD000004
:10065000E5FFFFFF0A6802F8010B0A60704700001F
:100660002DE9FF5F15468A460446DFF8AC80F84462
:100670000027D8E900103E46CDE9001010E03AF816
:1006800016106A4602A800F025FE411C07D021780A
:10069000890603D5E269391891420DD80744761CC2
:1006A0002078800602D5E069B84205DDAE42E6DB7F
:1006B0003AF816000028E2D1A069C01BA0612046CC
:1006C000FFF7FEFED8E90010CDE90010002017E08A
:1006D0003AF818106A4602A800F0FCFDB0F1FF3F9E
:1006E00081460BD000250DF1080B05E0D4E901216E
:1006F0001BF8050090476D1C4D45F7D308F101002C
:10070000B0428046E4DB206A384420622046FFF78E
:10071000EDFEBDE8FF9F00004A3600002DE9F041E4
:100720008046D21D22F007020025D2E90002F529F9
:1007300015A614D0011E72F1000106DA0023D0EBD9
:10074000030063EB020211A608E0D8F800108B0743
:1007500001D50FA602E0490701D50EA601251146D5
:10076000002408F1240704E000F05CF930323A5527
:10077000641C50EA0102F7D12B463246214640461E
:10078000BDE8F04100F093B9000000002D0000002A
:100790002B0000002000000030B4002100F12404F0
:1007A00008E002F00705D208303542EA4372DB0860
:1007B0006554491C52EA0305F3D10468002310A2D2
:1007C000250707D5A40600D421B1C46901230DA2D1
:1007D000641EC46130BC00F06AB910B504462146FD
:1007E0001068FFF79DFE02462046BDE8104000233A
:1007F000D2E7D21D22F00701D1E90023CCE70000A7
:100800000000000030000000F0B40D46018809052A
:1008100002D5214C7C4402E01F4C7C440E34002164
:1008200000F1240608E002F00F071209E75D42EA32
:1008300003721B097754491C52EA0307F3D102786B
:100840000023120704D5702D06D009B102231134FC
:100850002246F0BC00F02BB901231034F8E770B544
:1008600004460D4621461068FFF75AFE0246294607
:100870002046BDE870400023C6E7D21D22F00703E2
:10088000D3E90023C0E70368126843F02003036044
:100890000823C3610023B7E7AC3400002DE9F05F03
:1008A000894604464FF0000ADFF874B1FB44C0F8F3
:1008B00020A02046E1688847002874D0252806D06B
:1008C000D4E901219047206A401C2062F1E700260C
:1008D0005F462046E16888472028054607DB312D22
:1008E00005D2781910F8200C08B10643F1E7B007DB
:1008F00001D526F00406C4F81CA00027C4F818A0EF
:100900002A2D09D0284603F069F938B304EB87088B
:10091000303DC8F8185019E059F8041B204604EB84
:1009200087029161E1688847012F054618D1E06987
:10093000002820DA26F020061DE0D8F8180000EB89
:10094000800005EB40003038C8F818002046E16808
:100950008847054603F042F90028EED1012F0AD05E
:100960002E2D08D12046E16888477F1C0546022FBE
:1009700046F02006C4DBA069002803DA404246F0B6
:100980000106A061F00701D026F010066C2D0BD0F7
:10099000682D09D04C2D39D06A2D35D0742D35D025
:1009A0007A2D33D016E038E0E1682F46204688479C
:1009B000B842054609D16C2F26D04FF48060E1681B
:1009C000064320468847054604E06C2F1AD04FF4B2
:1009D000807006430DB3A5F14100192802D82035D7
:1009E00046F400664A462946204626604E46FFF7F2
:1009F00005FC80B101280BD0F61D26F0070000F1A0
:100A0000080956E74020E4E78020D8E70020D6E731
:100A100006F104094DE7284652E7206ABDE8F09F39
:100A20003C34000030B5B0F10A024FEA900E71F18B
:100A300000034EEA817EB0EB0E0061EB91014FEABC
:100A4000101E4EEA017E10EB0E0041EB11114FEA31
:100A5000102E4EEA016E10EB0E0041EB11214FEA11
:100A6000104E4EEA014E10EB0E0041EB11414018C2
:100A700041F100014FEAD00040EA41704FEAD10154
:100A800010EB80054FEA810444EA907444EB0104C2
:100A90006D1944EB0404521BA3414FF0000348BFFF
:100AA0000A3200D530BD401C41F1000130BD2DE9B6
:100AB000F0470D4699469246044600F12408016825
:100AC000880604D5E06921F01001216000E00120D2
:100AD000A84201DD471B00E00027A1697A1902EB5B
:100AE0000900081AA0612078C00602D42046FFF74A
:100AF000E7FC002608E0D4E901211AF80600904737
:100B0000206A401C761C20624E45F4DB2078C0062B
:100B10000AD52046FFF7D4FC06E0D4E901213020B5
:100B20009047206A401C2062381EA7F10107F4DCC0
:100B300007E0D4E9012118F805009047206A401C1D
:100B40002062281EA5F10105F3DC2046FFF7CEFC4C
:100B50002078000602D50220BDE8F0870120FBE7DF
:100B600070472DE9FF4F0C461E464FF0FF378BB004
:100B7000D2E90001DDF860800A908A46C1F30A5587
:100B800005B93D46002108464FF00000BAF1000FBC
:100B900000F4400005DA00EB80004FF4400101EA68
:100BA00050004FEA9059B9F1010F00DDB9460A989B
:100BB00050EA4A000ED044F61050A5F2FF354543E6
:100BC0002F14B8F1000F1ED07542291E1EDDC9F189
:100BD00000021CE0B8F1010F4FF0000001D03021FD
:100BE00003E0F24305E02154401CB042FBDB3046F9
:100BF0000022002121540B99C1F80880C1E900208E
:100C00000FB0BDE8F08FBD1B6D1CDEE74A4600DA71
:100C1000694206A800F0F0FB06AB93E8070003ABBF
:100C200083E8070050460A9900F0ADFC8DE8070004
:100C3000A0F500501F3800900398002D0ADD42F205
:100C40001F014A460844002303A90390684600F0A8
:100C500016FF09E0A0F500504A461F38002303A9FB
:100C60000390684600F020FF8DE807000004000CA8
:100C700003D04FF0FF30410800E01046B8F1000FFC
:100C800003D00022009215461EE0751E05D4FFF722
:100C9000C9FE303262556D1EF9D5B34601220843B4
:100CA00002D000227F1C04E02078302801D10022ED
:100CB0007F1E002A099784D01DE0112D07DAFFF767
:100CC000B1FE303262556D1C50EA0102F5D1084385
:100CD00002D00098C8B10EE00021681E05E0235C38
:100CE000625C63542254401E491C8142F7DBAB46D0
:100CF000A81B401E0990002004F80B000B98099ACD
:100D0000C0F80880C0E9002B7AE711264FF00008F0
:100D100057E72DE9F04F88460446D21D22F007011F
:100D200091B0D1E90001CDE90A0102F02FFF02469E
:100D30000B98C00F01D02D2007E02068810701D556
:100D40002B2002E0202101EAC000032A099001D0F3
:100D5000072A05DB03464146204600F00DFB0BE168
:100D60002078800601D5E06900E00620B8F1650F23
:100D7000814606D0B8F1660F18D0B8F1670F70D170
:100D800031E00020B9F1110F009001DB112301E0E7
:100D900009F101030AAA01A90CA8FFF7E2FEDDE9A7
:100DA0000C70002609F10105834647E001204B46FF
:100DB00000904FF000470AAA01A90CA8FFF7D1FE46
:100DC000DDE90DB00C995D46002610B909F101006E
:100DD0000D18B9EB050003D4C0F1FF3609F1010588
:100DE000A5EB09002BE0B9F1010F01DA4FF0010981
:100DF0000020B9F1110F0090484601DD112300E0F9
:100E000003460AAA01A90CA8FFF7ABFEDDE90C70A6
:100E10004D4600268346207800070AD4AB4500DA09
:100E20005D4601A8012D04DD411911F8011C30298E
:100E300007D04F4502DA17F1040F04DA0120824689
:100E40000FE06D1EEEE7002F02DCED1B3E4403E0D9
:100E5000781CA84200DD7D1CB81B00F1010A4FF090
:100E600000472078000703D4AA4501DB4FF0FF3A82
:100E70000021B7F1004F0DF143088DF8431024D045
:100E800002202B23002F01DA7F422D230A21021E8C
:100E9000A0F1010000DC5FB197FBF1FC97FBF1F2E0
:100EA00001FB1C7C17460CF1300C08F801CDEEE775
:100EB000A8F1010003702188090501D5452100E052
:100EC0006521A0F1010800F8011C09980FA9A1EB08
:100ED0000807FF1D00B10120411901EBEA70A1696B
:100EE0003844081A401EA0612078C00602D420466B
:100EF000FFF7E6FA099828B1D4E901219047206A62
:100F0000401C20622078C00622D52046FFF7D8FA80
:100F10001EE0002E04DBB34502DD01A8805D00E089
:100F20003020D4E901219047206A401C2062761CC1
:100F3000AAF101005FEA000A0AD100F019FAC068BC
:100F40000168405CD4E901219047206A401C20627E
:100F5000281EA5F10105DCDC07E0D4E9012118F821
:100F6000010B9047206A401C2062381EA7F1010740
:100F7000F3DC2046FFF7BAFA032011B041E6000087
:100F80002DE9F04F04460D46D21D22F0070089B02E
:100F9000D0E900974846394602F0F8FD0246F80FBE
:100FA00001D02D2307E02068810701D52B2302E023
:100FB000202101EAC0038DF820300BB1012000E0B0
:100FC0000020032A824601D0072A04DB2946204656
:100FD00000F0D2F93FE12078800601D40D2500E031
:100FE000E569C7F30A560D2D49DA00214FEA175B70
:100FF00008464FF00000002F00F4400007DA00EB35
:1010000080004FF4400100EBD07001EA60008115D0
:10101000012901DD4FF0FF3100224FEA850CBCF1C0
:10102000180F06D31346ACF118004FF08052C2409F
:1010300003E04FF4801323FA0CF30CF10C0CBCF119
:10104000200F04D3ACF1200C09FA0CF001E007FAF0
:101050000CF000294FF0004801DD18B90FE00ED167
:1010600040450CD319EB02095F4121B9404502D13B
:101070009F4329EA0209BBEB175F00D0761C20884A
:10108000000502D57B48784402E07A487844193854
:1010900008AA302302F80A30037C0AF10101002E6D
:1010A0000AF1020A53546A4602DC4FF0300101E0B3
:1010B0004FF031014FF001088DF8001002D0A6F278
:1010C000FF3603E059EA470100D06B4E002D02DCE9
:1010D0002178090704D54FF002082E218DF8011060
:1010E000C44600210BE0C7F303433F01C35C491C26
:1010F0006D1E02F80830052908F1010801DA002DFB
:10110000F1DC00210CE000EB1973491C1B786D1E0B
:10111000082902F808304FEA091908F1010801DA34
:10112000002DF0DC21688B0602D516E0A8F101083D
:10113000E04505DD02EB080313F8013C302BF5D048
:10114000B8F1000F09DD02EB080313F8013C2E2B68
:1011500003D1090701D4A8F10108002D05DD3E21C6
:1011600002F808106D1E08F10108407C002E02F8FC
:10117000080008F1010804DA2D20764202F8080080
:1011800002E02B2002F808000A214FF47A70864210
:1011900008F101080BDB96FBF0F3303302F808305E
:1011A00096FBF0F308F1010800FB136601E0642EE2
:1011B0000CDB642096FBF0F3303302F8083096FB2A
:1011C000F0F308F1010800FB136601E00A2E06DBCC
:1011D00096FBF1F0303002F8080008F1010896FBA8
:1011E000F1F001FB1060303002F80800A16908F14D
:1011F000010808EB050202EB0A00081AA06120783A
:10120000C00602D42046FFF75BF9216A08AE01EB65
:101210000A00206204E0D4E9012116F8010B90478E
:10122000BAF1010AF7D22078C00602D52046FFF7AE
:1012300047F96E4609E016F8010B3E280FD0D4E9B5
:1012400001219047206A401C2062B8F10108F2D2C7
:101250002046FFF74BF909B00320BDE8F08F206A64
:101260002844206203E0D4E90121302090476D1E1C
:10127000EBD3F8E7862C000002FCFFFF10B54369B2
:1012800013B1AFF3008001E0FFF753F9012010BD67
:10129000127800F124010A7000224A700122EDE761
:1012A00011684FF0FF32E9E710B5436913B1AFF3AE
:1012B000008001E0FFF7D4F9012010BD128800F191
:1012C000240182840022C2840122EDE711684FF0DC
:1012D000FF32E9E770B516460C46054600F040F8C7
:1012E000036893F80101012806D0FF2C0FD8185D80
:1012F00068B101202C7070BDD3F807013246214639
:1013000003F2071303442846BDE8704018474FF026
:10131000FF3070BD754600F0EBF8AE46050069463B
:10132000534620F00700854618B020B5FEF7E0FFD1
:10133000BDE820404FF000064FF000074FF00008D6
:101340004FF0000B21F00701AC46ACE8C009ACE857
:10135000C009ACE8C009ACE8C0098D467047000080
:1013600010B500F005F8001D10BD00BFF928000001
:1013700000487047BC0100202DE9F0411F4604469B
:1013800003260168072A01F4006004DB08B116A5F2
:1013900005E016A503E008B115A500E015A521F0AC
:1013A00010002060A069C01EA0610FB1401EA061A6
:1013B0002046FFF785F84FB1D4E901213846904720
:1013C000206A401C2062C01C206206E0206AFAE706
:1013D000D4E9012115F8010B9047761EF8D220467A
:1013E000FFF784F8BDE8F0814E414E006E616E005B
:1013F000494E4600696E66002DE9F0478146164663
:101400008AB0354878440DC88DE80D0032487844DC
:10141000801C03AC0DC884E80D0041F69B300844E5
:10142000372190FBF1F290FBF1F5A5F1800501FB6E
:1014300012041B3C02D56442012000E00020DFF8CA
:1014400098A080460027FA44AAF1BE0A0EE0E00701
:101450000AD03246684607EB470101230AEB8101B7
:1014600000F022FB8DE8070064107F1C002CEED1F9
:10147000194F7F44AE3F19E0E80715D007EB041081
:101480000DF1180A90E80E008AE80E00C068F042DC
:1014900001D1981908903246012306A903A800F04B
:1014A00003FB03AB83E807006D10641C002DE3D140
:1014B0004FF0010332466946B8F1000F03A802D08D
:1014C00000F0DDFA01E000F0EFFAC9E90001C9F827
:1014D00008200AB0BDE8F0879829000010B504463E
:1014E000AFF300802046BDE81040FEF7ECBE0000E0
:1014F000004870479C0100204FF0013C50F8042B3D
:1015000051F8043B9A4221D1A2EB0C03934313EA16
:10151000CC1317D150F8042B51F8043B9A4215D143
:10152000A2EB0C03934313EACC130BD150F8042B1A
:1015300051F8043B9A4209D1A2EB0C03934313EAFE
:10154000CC13DBD04FF00000704700BFD01A01BAB7
:10155000B1FA81F101F0180122FA01F0CB40C1F19A
:101560002001DBB2C0B2C01A2CFA01F3D11A9143A8
:1015700011EAC311E6D1704701491820ABBEFEE75E
:101580002600020070475FEA400C08BF91F0000F90
:101590004FEA8C234FEAC12243EA51514FEA1C50D3
:1015A00018BF00F5F0404FEA300018BF41F000418D
:1015B0005FEA6C5C00F02980BCF1FF3F08BF40F09F
:1015C00080407047130C06BF12044FF0100C4FF010
:1015D000000C130E04BF12020CF1080C130F04BF11
:1015E00012010CF1040C930F04BF92000CF1020CD9
:1015F000D30F04BF52000CF1010C11464FF0000252
:10160000A0F11F00A0EB0C00704711F0004F08BFC5
:10161000704731F000413FF4D5AF0B0C06BF090411
:101620004FF0100C4FF0000C0B0E04BF09020CF130
:10163000080C0B0F04BF09010CF1040C8B0F04BF45
:1016400089000CF1020CCB0F04BF49000CF1010C16
:10165000CCF12003A0EB0C0022FA03F302FA0CF207
:1016600041EA030100F10100704720F07F4C80EA5D
:10167000030023F07F47ACEB070303F57C5300F036
:10168000004003F1FF032DE980494FEA154B09B4EF
:101690004FEA144325EA0B4E24EA03480FF20426CE
:1016A00006EB132749083E785FEA320203FB066720
:1016B000C7F5000707FB06F64FEA54374FEAD64650
:1016C00006F1020607FB066CCCF1005C4FEA1C47F2
:1016D0002CEA074C07FB06F40CFB06F504EB154659
:1016E0004FEA961634BF00204FF000404FEAD13742
:1016F00006FB07FC4FEA1C4C0CFB0BF7D21B03FB51
:101700000CF761EB07010CFB0EF7B0EB074072EB37
:1017100017420CFB08F734BFA2EB0742B2EB0742BB
:1017200061EB17414FEA0C444FEA910706FB07FCB7
:101730004FEA1C4C0CFB0BF7B0EBC74072EB573277
:1017400003FB0CF734BFA2EBC742B2EBC74261EB1D
:1017500057310CFB0EF7B0EBC70072EB57720CFB66
:1017600008F734BFA2EBC702B2EBC70261EB5771B7
:10177000039F4FEA816141EA921104EBCC044FEAE6
:10178000D1374FEA826206FB07FC42EA90124FEA29
:1017900080604FEA1C4C0CFB0BF7D21B03FB0CF7D1
:1017A00061EB07010CFB0EF7B0EB074072EB174241
:1017B0000CFB08F734BFA2EB0742B2EB074261EB28
:1017C00017414FEA8C554FEA910704EB9C2406FB26
:1017D00007FC4FEA1C4C0CFB0BF7B0EBC74072EB5D
:1017E000573203FB0CF734BFA2EBC742B2EBC74240
:1017F00061EB57310CFB0EF7B0EBC70072EB577281
:101800000CFB08F734BFA2EBC702B2EBC70261EBD7
:10181000577115EB4C254FEA816141EA92114FEA6D
:1018200082624FEAD13742EA901206FB07FC44F18C
:1018300000044FEA80604FEA1C4C0CFB0BF7D21BF4
:1018400003FB0CF761EB07010CFB0EF7B0EB074055
:1018500072EB17420CFB08F734BFA2EB0742B2EB66
:10186000074261EB174115EB1C154FEA813141EA44
:1018700092414FEA823242EA90424FEA80304FEA88
:101880000C7644F1000448EA03434EEA0B484FF05B
:10189000000EB2EB080C71EB030724BF6246394619
:1018A0004EEB0E0E4FF0000B0018524149414BEB2E
:1018B0000B0BB2EB080C71EB03077BF1000B24BFA1
:1018C000624639464EEB0E0E4FF0000B00185241A7
:1018D00049414BEB0B0BB2EB080C71EB03077BF1AF
:1018E000000B24BF624639464EEB0E0E51EA02074A
:1018F00018BF46F0010616EB0E7655F1000254F1C2
:10190000000103D5BDE88901BDE80088BDE8890173
:10191000BDE80048B619524141EB0101A3F10103B2
:10192000704780807F7E7D7C7B7A7978777676754C
:101930007473727171706F6E6E6D6C6C6B6A6A69C4
:101940006868676666656464636362616160605F5E
:101950005F5E5E5D5D5C5C5B5B5A5A5959585857D7
:10196000575656555555545453535252525151503F
:1019700050504F4F4F4E4E4D4D4D4C4C4C4B4B4B92
:101980004A4A4A49494948484847474747464646D8
:101990004545454444444443434343424242424113
:1019A0004141002B9C4630D477002BD01CB54FEA28
:1019B000370703B44FF010004FF01001BAF1000FD9
:1019C00006D0BCF1000FDCBF40F0080040F0080179
:1019D0004FF000000FBCBDE810400BF1010BBBF154
:1019E000010F08BF5FEA170722BF12F1010211F1D0
:1019F00001014FF0004143F1000300F0004043EAD1
:101A000000007047F9D35708D0E746EA064613F1BD
:101A1000400F4FEA16461FDD13F1200FDFBF1643BC
:101A20000A46002120335B42BED0C3F1200746EABC
:101A3000064602FA07F74FEA164646EA0706C3F1DA
:101A4000200722FA03F201FA07F721FA03F14FF017
:101A5000000342EA0702A7E746EA020646EA06460C
:101A60004FEA164646EA0106BCBF46EA0646360C71
:101A70004FF000034FF000024FF0000194E72DE912
:101A8000804C9A46934670B491E8380007C831EA12
:101A9000400C48BF34EA430C03D5FFF7E6FDFFF7DF
:101AA00080FFF0BCBDE8008C2DE9804C9A4693463F
:101AB00070B491E8380007C810F0804F08BF13F0E9
:101AC000804F03D100F005F8FFF76BFFF0BCBDE8D5
:101AD000008C20F07F4780EA030023F07F4C07EB67
:101AE0000C03A3F57C5300F00040A3F1FE0392F039
:101AF000000F00F0B38095F0000F00F077802DE923
:101B000001494FEA11404FEA144621EA004800FB20
:101B100006FC24EA064708FB06F607FB08F800FB6C
:101B200007F718EB06484CEB164C4FEA124B18EB34
:101B300007484FEA15464CEB174022EA0B4E0BFBC9
:101B400006FC25EA06470EFB06F607FB0EFE0BFB1E
:101B500007F71EEB064E4CEB164C4FF000061EEB43
:101B6000074E4CEB174B18EB0B0840F1000018EB3D
:101B70000E0B58EB000840F100008F1A4FF00001E7
:101B80003CBFC943661B14BFB5EB040C00213CBF2E
:101B9000C943F61B4FEA17444EEA8E0E27EA044566
:101BA0004FEA1C4704FB07622CEA074C05FB07F7CA
:101BB0000CFB05F604FB0CFC16EB074642EB174248
:101BC00016EB0C4642EB1C421BEB060658EB0202DE
:101BD000414146EA9E0601D5BDE80189B619524148
:101BE00041EB0101A3F10103BDE801894FEA14456E
:101BF0004FEA114724EA054621EA074C05FB07F4A2
:101C000006FB07F70CFB06F105FB0CFC11EB07418B
:101C100044EB17444FEA124711EB0C4144EB1C44D0
:101C200022EA074C05FB07F206FB07F70CFB06F65A
:101C300005FB0CFC16EB074642EB174216EB0C4675
:101C400042EB1C456A1854F1000148BF7047B619B1
:101C5000524141EB0101A3F10103704795F0000FE0
:101C600037D04FEA11424FEA144721EA024624EAEC
:101C7000074C02FB07F106FB07F70CFB06F402FB1F
:101C80000CFC14EB074441EB17414FEA154714EBEA
:101C90000C4441EB1C4125EA074C02FB07F506FB0F
:101CA00007F70CFB06F602FB0CFC16EB074645EBB0
:101CB000174516EB0C4645EB1C42121951F1000179
:101CC00048BF7047B619524141EB0101A3F101032E
:101CD00070474FEA14454FEA114724EA054621EAC6
:101CE000074C05FB07F106FB07F70CFB06F24FF06C
:101CF000000605FB0CFC12EB074241EB174112EB0F
:101D00000C4251EB1C4148BF7047921841EB010156
:101D1000A3F10103704700000FB4642100B599B02E
:101D20006846FEF7A3FB1BAA68461A99FEF76AFBF2
:101D30004FF0FF3364226946024801F0BDFC19B040
:101D40005DF814FB2400002070B50024C8212A4847
:101D5000FEF76AFB651E2B4601222749274801F042
:101D600053FC002845D1244E2B46711C3278234861
:101D700001F04AFC00283CD170781038122835D286
:101D8000DFE800F0090D1115191D2125272B34342A
:101D9000343434342D2F184800F0FEF924E016486E
:101DA00000F0B8F920E0144800F06EF91CE0124889
:101DB00000F0A4FB18E0104800F05EFA14E00E48B2
:101DC00000F0E0F810E00C4800F0DEFA0CE00C48FF
:101DD00000E00CA0FFF7A0FF06E016A0FAE720A0A5
:101DE000F8E7054800F07AF8012402E023A0FFF7A5
:101DF00093FF204670BD0000D40000206C0000203E
:101E0000B83D0008526561642064617461206672A7
:101E10006F6D20646966666572656E74206D656DB0
:101E20006F72696573206F6620746865204D435535
:101E3000200D0A005265616420616C6C2074686535
:101E400020736563746F722070726F746563746958
:101E50006F6E20737461747573200D0A00000000AA
:101E60005265616420746865204F545020636F6E22
:101E700074656E7473200D0A00000000496E76616F
:101E80006C696420636F6D6D616E6420636F64655F
:101E9000202121200D0A0000F8B507460020164633
:101EA0000D460446009008E0385D00900122694626
:101EB000094800F04DFD641CE4B2AC42F4D306497D
:101EC00009688A6842F001028A60B04201D10120AB
:101ED000F8BD0020F8BD00000000002038B5044621
:101EE00000258DF8005019A0FFF716FF2178491C36
:101EF0006018091F50F8042C2046FFF7CDFF012879
:101F000005D01F48FFF708FF00F05AFB38BD1C48FA
:101F10001C30FFF701FF012000F036FBA0780228FB
:101F200005D0CC2803D028B1012805D005E08DF8D4
:101F3000005006E0AA2000E0552000F051FB8DF88B
:101F400000000121684600F031FB38BD4368616E36
:101F5000676520726561642070726F74656374696F
:101F60006F6E206C6576656C206F662074686520E6
:101F70007573657220666C617368200D0A0000003D
:101F80002422000838B5044600208DF8000018A06F
:101F9000FFF7C2FE2178491C6018091F50F8042C75
:101FA0002046FFF779FF012805D01DA0FFF7B4FEFA
:101FB00000F006FB38BD21A0FFF7AEFE012000F0C7
:101FC000E3FAE178A07801F04FFC8DF800000328D7
:101FD0004FF00101684606D000F0E8FA1EA000BFED
:101FE000FFF79AFE38BD00F0E1FA22A0F8E7000002
:101FF0004D617373206572617365206F7220736524
:1020000063746F72206572617365206F66207468F7
:1020100065207573657220666C617368200D0A0017
:1020200043524320566572696669636174696F6ED5
:10203000204661696C6564200D0A0000435243200C
:10204000566572696669636174696F6E2050617369
:10205000736564200D0A0000457261736520726526
:102060007175657374206661696C65642021210D4A
:102070000A0000005375636365737366756C2045D1
:1020800072617365200D0A0038B504460020ADF872
:10209000000013A0FFF740FE2178491C6018091FBB
:1020A00050F8042C2046FFF7F7FE012805D017480A
:1020B000FFF732FE00F084FA38BD14481C30FFF7F9
:1020C0002BFE13480068C0F30B00ADF8000002209F
:1020D00000F05AFA0221684600F068FA38BD0000A4
:1020E0005265616420746865204D435520636869BA
:1020F00070206964656E74696669636174696F6E86
:10210000206E756D626572200D0A000024220008A1
:10211000002004E010B5044610A0FFF7FDFD217873
:10212000491C6018091F50F8042C2046FFF7B4FE24
:10213000012806D01648FFF7EFFDBDE8104000F07B
:102140003FBA13481C30FFF7E7FD0C2000F01CFAE3
:10215000BDE810400C210F4800F028BA52656164B8
:102160002074686520636F6D6D616E647320737594
:1021700070706F7274656420627920746865206283
:102180006F6F746C6F61646572200D0A000000004F
:10219000242200081800002038B5044615A0006865
:1021A000009015A0FFF7B8FD2178491C6018091FA1
:1021B00050F8042C2046FFF76FFE012805D019A027
:1021C000FFF7AAFD00F0FCF938BD1DA0FFF7A4FD44
:1021D000042000F0D9F90421684600F0E7F99DF8E1
:1021E00003309DF802209DF801101CA0FFF794FD1C
:1021F00038BD0000640101005265616420746865A7
:1022000020626F6F746C6F616465722076657273A3
:10221000696F6E2066726F6D20746865204D43553E
:10222000200D0A0043524320566572696669636156
:1022300074696F6E204661696C6564200D0A000048
:1022400043524320566572696669636174696F6EB3
:1022500020506173736564200D0A0000426F6F7433
:102260006C6F61646572205665722E2025642E2580
:10227000642E2564200D0A0038B5044600208DF830
:1022800000001BA0FFF748FD2178491C6018091FBA
:1022900050F8042C2046FFF7FFFD012805D01EA0B2
:1022A000FFF73AFD00F08CF938BD22A0FFF734FDAE
:1022B000012000F069F9D4F80240204601F04EFAFE
:1022C0008DF80000012804D00121684600F06EF965
:1022D00038BD1FA0FFF720FD0121684600F066F918
:1022E000641C214623A0FFF717FDA04738BD00005E
:1022F0004A756D7020626F6F746C6F6164657220D7
:10230000746F2073706563696669656420616464D5
:1023100072657373200D0A0043524320566572693B
:102320006669636174696F6E204661696C656420DB
:102330000D0A000043524320566572696669636165
:1023400074696F6E20506173736564200D0A00001C
:10235000416464726573732076657269666963614E
:1023600074696F6E20737563636565646564200DC1
:102370000A0000004A756D7020746F203A20307892
:102380002558200D0A0000002DE9FC4100270446D5
:102390008DF800708DF804702DA0FFF7BDFC21783A
:1023A000491C6018091F50F8042C2046FFF774FDE3
:1023B000012806D033A0FFF7AFFC00F001F9BDE81B
:1023C000FC8137A0FFF7A8FC012000F0DDF8D4F86D
:1023D00002503AA02946FFF79FFCA679284601F053
:1023E000BDF98DF80000012804D08DF8007001219E
:1023F000684629E0A846E71D00252C4600F024FC8D
:1024000088B90AE000233A5D08EB0401184600F0A1
:10241000DDFB40B90125641CA4B2B442F2D315B16E
:1024200000F0A0FB00B100258DF804503DB1012162
:1024300001A800F0BBF827A0FFF76EFCBFE72AA0B9
:10244000FFF76AFC012101A800F0B0F8B7E700002F
:102450005772697465206461746120696E746F20BD
:10246000646966666572656E74206D656D6F72690C
:102470006573206F6620746865204D4355200D0AF2
:10248000000000004352432056657269666963612B
:1024900074696F6E204661696C6564200D0A0000E6
:1024A00043524320566572696669636174696F6E51
:1024B00020506173736564200D0A0000484F535427
:1024C0005F41646472657373203D20307825582025
:1024D0000D0A00005061796C6F61642056616C696F
:1024E00064200D0A000000005061796C6F61642067
:1024F000496E56616C6964200D0A000010B588B001
:10250000044600208DF81C0013A0FFF705FC21787D
:10251000491C6018091F50F8042C2046FFF7BCFC2A
:10252000012806D01748FFF7F7FB00F049F808B07C
:1025300010BD14481C30FFF7EFFB012000F024F819
:10254000684600F089FA04988DF81C00012107A85C
:1025500000F02CF8EBE700005265616420746865B8
:1025600020464C41534820526561642050726F747C
:10257000656374696F6E204F7574206C6576656C49
:10258000200D0A002422000808B500210091CD2169
:102590008DF800108DF801004FF0FF3302226946DC
:1025A000014801F089F808BD6C0000208AB201469C
:1025B0004FF0FF33014801F07FB800006C000020AD
:1025C00008B5AB208DF800004FF0FF3301226946BB
:1025D000014801F071F808BD6C000020FEE7000022
:1025E00030B587B00546002400F0DCFA18B113A01E
:1025F000FFF792FB1FE021A0FFF78EFB0220009067
:102600000120CDE90305684600F046FA28B12BA069
:10261000FFF782FB00F0BCFA0DE031A0FFF77CFB76
:1026200000F0AAFA38B900F0B3FA20B9012429461B
:1026300034A0FFF771FB07B0204630BD4661696CDE
:102640006564202D3E20556E6C6F636B2074686549
:1026500020464C415348204F7074696F6E20436F81
:102660006E74726F6C205265676973746572732043
:10267000616363657373200D0A000000506173731A
:102680006564202D3E20556E6C6F636B2074686509
:1026900020464C415348204F7074696F6E20436F41
:1026A0006E74726F6C205265676973746572732003
:1026B000616363657373200D0A0000004661696CF5
:1026C0006564202D3E2050726F6772616D206F70BF
:1026D00074696F6E206279746573200D0A000000C2
:1026E000506173736564202D3E2050726F67726174
:1026F0006D206F7074696F6E206279746573200D40
:102700000A000000506173736564202D3E205072F2
:102710006F6772616D20524F5020746F204C657648
:10272000656C203A2030782558200D0A0000000002
:10273000704772B6FEE70000002229B101291AD0C5
:1027400002291BD04FF440720E490B6823F44073EA
:102750000B600B6813430B600A6822F0F8020A60F2
:102760000A68022303EBC00002430A60086840F4D1
:102770008030086070474FF48072E5E74FF40072D4
:10278000E2E70000103C02401348016889050FD5BC
:10279000016821F400710160016841F40061016089
:1027A000016821F400610160016841F40071016079
:1027B000016849050FD5016821F480610160016855
:1027C00041F480510160016821F480510160016889
:1027D00041F4806101607047003C024008490A688A
:1027E00022F440720A600A6842F004020A600A6831
:1027F0004FF4803343EA002002430A607047000030
:10280000103C0240064A136823F4407313601368B7
:102810001360136843F001031360017070470000F8
:10282000103C0240094910B50C6824F440740C6057
:102830000C6844F440740C600C6844F001040C60B3
:102840000260BFF36F8F436010BD0000103C024078
:10285000074A136823F440731360136843F48073CA
:102860001360136843F00103136001807047000098
:10287000103C0240074A136823F440731360136846
:1028800043F400731360136843F0010313600160A5
:1028900070470000103C024017490868C2061748FC
:1028A00005D5C26942F01002C26110220A600A68AE
:1028B000920605D5C26942F00802C26120220A6070
:1028C0000A68520605D5C26942F00402C26140227C
:1028D0000A600A68120605D5C26942F00202C261A6
:1028E00080220A600A68920705D5C26942F0200278
:1028F000C2610220086070470C3C0240B400002016
:1029000070B5114904460020C86100F0B1FA0646CE
:102910000E4D09E0601C07D024B100F0A9FA801B1D
:10292000A04201D9032070BD2868C003F2D42868F2
:10293000C00701D001202860286810F0F200F2D012
:10294000FFF7AAFF012070BDB40000200C3C02403C
:1029500030B502234371002305E000BF056851F83C
:1029600023402C605B1C9342F8D301680968012264
:102970004271084630BD10B5040002D0607910B134
:1029800006E0012010BD00202071204600F004F870
:1029900001206071002010BD08B50068064988421A
:1029A00008D10648016841F480510160006800F4D4
:1029B0008050009008BD00000030024030380240D6
:1029C0002DE9F047044622480F46017E01290AD02E
:1029D0000121804601764CF250394846FFF790FFBE
:1029E000020003D02FE00220BDE8F0874FF0FF3057
:1029F00038602068174D012801D0A6681CE0207CB3
:102A00006168FFF7EBFE4846FFF77AFF0246286849
:102A100020F00400286014E0217C3046FFF78CFE93
:102A20004846FFF76DFF0200286820F0FA00286092
:102A300001D03E6005E0761CD4E902100844B042A3
:102A4000EAD8FFF7A1FE002188F818101046CBE75E
:102A5000B4000020103C02400F2101600D4909889C
:102A600081600C4AAA21521E1378CC2B0FD0127809
:102A7000AA2A00D0552101610649891E0A6802F080
:102A8000E0020276097801F00C0141617047CC2127
:102A9000F1E70000163C02402DE9F0472E490446BC
:102AA00001200A7E012A11D0012288460A76217867
:102AB0004CF2503AC90715D06068284D0128A66825
:102AC000504606D0FFF71CFF48B10BE00220BDE8DE
:102AD000F087FFF715FF28B92988B14301E029885D
:102AE000314329802178890707D5257C5046FFF797
:102AF00007FF10B91949491E0D702178DFF8609061
:102B0000490713D5207E00F0200700F0400500F0B3
:102B100080065046FFF7F4FE40B999F8002002F015
:102B20001F02154335433D4389F8005021784FF08B
:102B3000000209070CD5207D99F8003023F00C0322
:102B400089F8003099F80030034389F800301046C6
:102B500088F81820BBE70000B4000020163C0240B3
:102B6000143C02400348016841F00041016000202C
:102B700070470000103C02400448017841F0020117
:102B800001704CF25030FFF7BBBE0000143C024015
:102B90000348016841F00101016000207047000016
:102BA000143C024006480068C00707D004480549A5
:102BB0000C38016004490160002070470120704713
:102BC000143C02403B2A19087F6E5D4C2DE9F0470A
:102BD0001B4E05461446307E1F468946012808D004
:102BE000012030764CF250384046FFF789FE18B18C
:102BF00014E00220BDE8F0879DB1012D16D0022D12
:102C000019D022463B464846FFF70CFE4046FFF7E8
:102C100077FE0C490A6822F001020A600021317631
:102C2000E8E7E1B24846FFF7EDFDEFE7A1B248461D
:102C3000FFF70EFEEAE721464846FFF71BFEE5E7F1
:102C4000B4000020103C0240074900200A68002A16
:102C500009DA054A054B0C3A1360054B1360096805
:102C6000002900DA01207047103C0240230167452B
:102C7000AB89EFCD2DE9F84FDFF8BCA1002201258B
:102C800003264FF00F090AF1040BAAF1040E00BF4E
:102C90000B6805FA02F42340A34270D10F7907F0C4
:102CA0000307012F01D0022F16D187684FEA42088F
:102CB00006FA08FC27EA0C07D1F80CC00CFA08FC4D
:102CC0004CEA070CC0F808C04768A7430C79C4F366
:102CD000001494403C4344600C79E443A4070AD0B8
:102CE000C4684FEA420C06FA0CF7BC438F6807FA37
:102CF0000CF72743C7600C7904F00304022C12D1AF
:102D0000D40800EB840CDCF820405707FF0E09FACA
:102D100007F824EA0804D1F8108008FA07F848EA0E
:102D20000408CCF8208004684FEA420C06FA0CF73D
:102D3000BC430F7907F0030707FA0CF72743076036
:102D40004C6814F4403F70D03C4C276847F48047EF
:102D50002760246822F0030704F480440094384C70
:102D600007EB040CDCF8084897074FEA177809FAD4
:102D700008F7BC43334FB84202D1002724E054E0A7
:102D8000314FB84201D101271EE0304FB84201D186
:102D9000022719E02E4FB84201D1032714E02D4F2E
:102DA000B84201D104270FE02B4FB84201D10527CB
:102DB0000AE02A4FB84201D1062705E0284FB84261
:102DC00001D1072700E0082707FA08F72743CCF8C6
:102DD0000878DAF800405746D1F804C09C435FEA0F
:102DE000CC2C00D51C433C60DBF800405F46D1F89A
:102DF00004C09C435FEA8C2C00D51C433C60DEF889
:102E000000407746D1F804C09C435FEA8C3C00D573
:102E10001C433C60084F083F3C68D1F804C09C4309
:102E20005FEACC3C00D51C433C60521C102AFFF4E6
:102E30002FAFBDE8F88F0000083C01404438024045
:102E4000003001400000024000040240000802403F
:102E5000000C024000100240001402400018024022
:102E6000001C02400AB1816170470904FBE70000C1
:102E700001488068704700000C000020024881680B
:102E800002781144816070470C0000200B4810B597
:102E9000016841F400710160016841F480610160E2
:102EA000016841F480710160032000F061F80F2097
:102EB00000F006F800F024F8002010BD003C0240AD
:102EC00070B50D4D04464FF47A712878B1FBF0F0DF
:102ED0000A490968B1FBF0F000F0FEFA48B9102C7D
:102EE00007D200222146501E00F022F800206C601C
:102EF00070BD012070BD00000C0000200800002003
:102F00000A4808B5016841F480410160006800F496
:102F1000804000900548001F016841F08051016029
:102F2000006800F08050009008BD00004438024066
:102F3000F0B40E4B1B680C46C3F30223C3F1070524
:102F4000042D00D90425191D072901D2002300E012
:102F5000DB1E012606FA05F1491E214099409E40DC
:102F6000761E16403143F0BC00F028BE0CED00E0A8
:102F7000064900F0070208684FF6FF03184040EAD0
:102F80000220034A10430860704700000CED00E087
:102F90000000FA052DE9F0470E46050065D0DFF880
:102FA0001481D8F80000F7B200F00700B04207D251
:102FB00088F80070D8F8000000F00700B04254D143
:102FC00028683D4C810712D5400703D5206840F49E
:102FD000E05020602878000703D5206840F4604066
:102FE00020602068A96820F0F0000843206028785D
:102FF000C0072DD0304968680839012812D002284E
:1030000013D0032811D00968890700292DDA216817
:1030100021F0030101432160FFF72AFF814641F2BD
:10302000883A0EE009688903EFE709688901ECE74F
:10303000FFF71EFFA0EB0901514502D90320BDE8AF
:10304000F0872068696800F00C00B0EB810FEFD1C9
:10305000D8F80010404601F00701B14207D90770C7
:10306000006800F00700B04201D00120E7E72878AF
:10307000400705D52068E96820F4E0500843206047
:103080002878000706D52068296920F4604040EAC6
:10309000C100206000F038F82168084AC1F303112C
:1030A000515CC8400649086006480068FFF708FF01
:1030B0000020C4E7003C024008380240A23C00085F
:1030C0000800002010000020044805490068096835
:1030D000044AC1F38221515CC840704708000020B7
:1030E00008380240B23C00080448054900680968F5
:1030F000044AC1F34231515CC840704708000020C7
:1031000008380240B23C0008154810B5006810F0BD
:103110000C02144813D01449042A0FD0082A0ED1E7
:103120000F4C241F2268236802F03F025B0207D580
:103130002068C0F38810A0FB010106E0084610BD1E
:103140002168C1F38811A1FB00010023FDF7E2F81B
:103150002168C1F30141491C4900B0FBF1F010BDE9
:10316000083802400024F40040787D012DE9F84F32
:1031700004006ED02078DFF84C93C007A9F1040555
:103180004AD009F104000168C1F38101012908D086
:103190000068C0F3810002280AD1D9F8000040027B
:1031A00006D52868800337D560680028E1D033E071
:1031B0006068B0F5803F10D0B0F5A02F286810D01F
:1031C00020F480302860286820F48020286060681F
:1031D000A8B1FFF74DFE06460DE0286840F48030A8
:1031E000F4E740F480202860F7E700BFFFF740FED7
:1031F000801B642873D828688003F7D50CE0FFF79C
:1032000037FE064605E000BFFFF732FE801B64284C
:10321000F0D828688003F7D42078DFF8AC828007E4
:103220004FF0000A3ED5A748001D016811F00C0FB1
:1032300008D00068C0F3810002280BD1D9F8000043
:10324000400207D42868800716D5E068012800D11D
:1032500012E033E1E068B8B10120C8F80000FFF7E0
:1032600007FE064605E000BFFFF702FE801B0228AE
:10327000C0D828688007F7D52868216920F0F800B1
:1032800040EAC10028600DE0C8F800A0FFF7F0FD9B
:10329000064604E0FFF7ECFD801B02281FD82868D3
:1032A0008007F7D42078000722D5864F87486169C8
:1032B000703771B101210160FFF7DAFD064604E0C5
:1032C000FFF7D6FD801B022809D838688007F7D59C
:1032D0000EE0C0F800A0FFF7CBFD064605E082E057
:1032E000FFF7C6FD801B02287DD838688007F7D419
:1032F0002078400768D5DFF8CCB100270BF13C0BF4
:10330000DBF80000C0000BD4DBF8001041F0805166
:10331000CBF80010DBF80000012700F0805000908F
:103320006B4E3068C00510D4306840F48070306057
:10333000FFF79EFD009005E0FFF79AFD0099401A07
:10334000022850D83068C005F6D55E4EA0686C36AD
:1033500001280FD00528306810D020F0010030601F
:10336000306820F004003060A068B8B1FFF780FD3D
:1033700000900FE0306840F00100F4E740F00400F6
:103380003060F7E7FFF774FD0099411A41F2883089
:10339000814266D830688007F4D50EE0FFF768FDFB
:1033A000009007E0FFF764FD0099411A41F2883070
:1033B000814256D830688007F4D42FB1DBF8001072
:1033C00021F08051CBF80010A069C8B33D49091D18
:1033D0000968C1F3810102294AD00228504607D06A
:1033E000C8F8600000E03CE0FFF742FD04463BE027
:1033F0004746C8F86000FFF73BFD064605E000BF02
:10340000FFF736FD801B02282BD828688001F7D4EF
:10341000D4E907010843A16A2E4A490802EB014199
:10342000626A41EA8211084394F82C1040EA016173
:10343000C9F8001001203866FFF71AFD044606E0BF
:103440003EE000BFFFF714FD001B022809D82868E2
:103450008001F7D534E000BFFFF70AFD001B02280A
:1034600002D90320BDE8F88F28688001F4D427E052
:103470000128F7D0D9F80000E26900F480019142F8
:103480001CD1226A00F03F01914217D147F6C0716A
:10349000626A0140B1EB821F10D1A26A4FF0FF3384
:1034A00000F4403103EB5202B1EB024F06D194F825
:1034B0002C1000F07060B0EB016F01D00120D1E75B
:1034C0000020CFE70438024000004742800E474208
:1034D000007000400000FFFF10B5401EB0F1807F7B
:1034E00001D3012010BD4FF0E02460610F2160176F
:1034F00000F064FB0020A06107202061002010BDC7
:1035000070B5040004D094F84100002510B106E025
:10351000012070BD84F84050204600F023F824209C
:1035200084F841002068C16821F40051C160204640
:1035300000F06CFA2068016921F490410161206873
:10354000416921F02A0141612068C16841F40051BC
:10355000C1606564202084F8410084F842006563FE
:10356000002070BDF0B587B0044614216846FCF712
:103570007DFF21481F4F266800221F491038022373
:1035800003240725BE4215D10E6846F400360E60AE
:10359000096801F400310591016841F00101016001
:1035A0000068694600F0010005900C20CDE9000399
:1035B000124818E0124FBE421AD10E6846F4802617
:1035C0000E60096801F480210591016841F0020153
:1035D00001600068694600F0020005904FF4406009
:1035E000CDE90003074802AE86E83400FFF742FB4E
:1035F00007B0F0BD004400404038024000000240E7
:1036000000480040000402402DE9F84F044690F8BD
:1036100042009A4616460D46202802D00220BDE8F8
:10362000F88FB5B1AEB100206064222184F8421059
:103630002063FFF71DFCA6858146E685A0684FF450
:1036400080582027404501D1206920B12E46002511
:1036500029E00120E3E7002625E04B460022202157
:103660002046CDF800A000F057FA18B184F8427057
:103670000320D4E726B1A06840451AD038B108E04D
:1036800020684068C0F3080025F8020B08E02069B4
:1036900078B12068406800F07F0000BF06F8010B99
:1036A000E08D401EE085E08D0028D6D184F8427080
:1036B000B5E720684068F1E72DE9F843044690F843
:1036C0004100984616460D46202802D00220BDE84B
:1036D000F88385B17EB100206064212084F8410028
:1036E000FFF7C6FBA6848146E684A0682027B0F5D4
:1036F000805F02D003E00120E9E7206910B12E4687
:1037000000250EE000260CE08021204600F004FA9F
:10371000A8B9C6B116F8010B21684860E08C401EBC
:10372000E084E08C4B464FF00002CDF8008000288A
:10373000EAD14FF04001204600F0EEF940B184F8A4
:1037400041700320C3E735F8020BC0F30800E3E73C
:1037500084F841700020BAE7FEE700000021A0F1E4
:103760000052B2F5E03F0ED9084A0244B2F5804F4C
:1037700009D9A0F18052B2F5803F04D9A0F10060D0
:10378000B0F5801F00D80121084670470040FEDFD9
:10379000074910B5054808600846FFF7ECF800280F
:1037A00003D0BDE81040FEF7C4BF10BD003002409A
:1037B000000000200D4808B5016841F0800101605B
:1037C000016801F080010091016841F00101016090
:1037D000016801F001010091016841F002010160FE
:1037E000006800F00200009008BD00003038024080
:1037F0000C4810B50A4901604FF4E13141600021E5
:1038000081600C22C160C0E904128161C161FFF7CF
:1038100077FE002803D0BDE81040FEF78ABF10BD38
:1038200000440040240000200C4810B50A49016003
:103830004FF4E1314160002181600C22C160C0E998
:1038400004128161C161FFF75BFE002803D0BDE86F
:103850001040FEF76EBF10BD004800406C00002015
:10386000FEE7FEE770470000F0B5002587B00C4684
:1038700006462F4600950C2905D801250B2E0AD99E
:10388000FF2803D0022507B02846F0BD11A00195FE
:10389000FEF742FA0BE017A0FEF73EFAC6F10C0065
:1038A000C0B2844200D904460197CDE903640220E6
:1038B00002950590FFF7C8F9694601A8FFF780F85F
:1038C0000098401C03D00225FFF74CF9DBE70325E5
:1038D000FAE70000466C617368204D6173732065E0
:1038E000726173652061637469766174696F6E20BB
:1038F0000D0A000055736572206E65656473205370
:103900006563746F72206572617365200D0A000033
:103910007047FFF7B3BA000030B593B03021684666
:10392000FCF7A4FD14210CA8FCF7A0FD1D48002500
:10393000016841F080510160006800F080501190F2
:103940001948016841F4804101600068022400F4D4
:103950008040119001200090000401908001CDE989
:10396000064008AA0420A82182E813000B906846AC
:10397000FFF7FCFB08B172B6FEE70CA90F2081E847
:1039800031004FF4A0500F904FF48050109005215B
:103990000CA8FFF7FFFA002801D072B6FEE713B0BB
:1039A00030BD00004038024000700040024801680D
:1039B00041F470010160704788ED00E001680C314E
:1039C00051E8002F22F4907241E80023002BF5D13A
:1039D0000168143151E8002F22F0010241E8002370
:1039E000002BF5D1016B012909D101680C3151E897
:1039F000002F22F0100241E80023002BF5D12021F6
:103A000080F84210002101637047000070B5044641
:103A100000680169E26821F44051114301612169A4
:103A2000A068E26908436169114308432168CA68D4
:103A300049F20C639A430243CA6020684169A26953
:103A400021F440711143416131492068884202D01C
:103A50003049884202D1FFF747FB01E0FFF734FB12
:103A6000E2690023192164253226B2F5004F62680D
:103A700028D0A0FB0101930F9200FCF74BFC0146FC
:103A8000B0FBF5F06FF01802504301EB800006EB3D
:103A90000010B0FBF5F000F0F002B1FBF5F002EB26
:103AA0000012B1FBF5F06FF01803584301EB8000F2
:103AB00006EB0010B0FBF5F000F00F002168104499
:103AC000886070BDA0FB010192185B41FCF722FCED
:103AD0000146B0FBF5F00201B1FBF5F06FF0180301
:103AE000584301EB800006EBC000B0FBF5F000F09E
:103AF000F80002EB4002B1FBF5F0584301EB800007
:103B000006EBC000B0FBF5F000F00700D6E70000C0
:103B100000100140001401402DE9F8439846174673
:103B20000D460446089E24E0701C22D0FFF7A0F941
:103B3000A0EB0800B0421AD8CEB12068C16849078E
:103B400017D5802D15D0402D13D00168C943090722
:103B50000FD401680025406800902046FFF72EFF33
:103B60000820606484F840500120BDE8F8830320F9
:103B7000FBE72068006835EA000004D00020B84266
:103B8000D2D00020F1E70120F9E7FEE703B4019865
:103B90004100009850EAC12018BF04204A0D18BF08
:103BA00040F0010040F2FF72B2EB515F08BF40F0FD
:103BB0000200012808BF052002B070470907090E5E
:103BC000002804DB00F1E02080F80014704700F0CA
:103BD0000F0000F1E02080F8141D704730380A28EB
:103BE00001D201207047002070470000FFF74EF916
:103BF000FFF792FEFFF7DEFDFFF7CAFDFFF7F8FDC6
:103C0000FFF712FE05A0FEF787F80122110309480D
:103C1000FFF728F9FEF798F8FCE70000426F6F7491
:103C20006C6F6164657220737461727465642E20B8
:103C30000D0A0000000C024010B500290AD00878D7
:103C4000002807D005487844FDF756FC002801D02D
:103C5000002010BD0248784410BD0000E2010000C1
:103C6000DA01000010B500290AD00878002807D032
:103C700005487844FDF740FC002801D0002010BD25
:103C80000248784410BD0000D2010000CA010000C3
:103C90004FF04070E1EE100A7047FDF73AB8FDF7BB
:103CA0006FB90000000000000000010203040607D5
:103CB00008090000000001020304000000000000E9
:103CC0000000000030313233343536373839414264
:103CD000434445464030580030313233343536376E
:103CE000383961626364656640307800040000081A
:103CF000000000000000000200010000103031321E
:103D000033343536373839616263646566787000FC
:103D10003031323334353637383941424344454601
:103D20005850000002400000000000A00000000009
:103D300005400000000000C8000000000C4000002A
:103D40000000409C00000000194000000020BCBEA4
:103D50000000000034400000BFC91B8E00000004BA
:103D6000B5400000504BCFD06607E2CF0100000005
:103D70006C4100003E8251AADFEEA7340100000032
:103D8000D9420000DCB5A0E23A301F97FFFFFFFFE9
:103D9000B4450000FD25A0C8E9A3C14FFFFFFFFF08
:103DA000FF3F00000000008000000000FF3F000017
:103DB0000000008000000000456E61626C65206FAD
:103DC000722044697361626C652077726974652042
:103DD00070726F74656374696F6E206F6E206469B2
:103DE00066666572656E7420736563746F727320A6
:103DF0006F6620746865207573657220666C6173E8
:103E000068200D0A00000000543F00080000002058
:103E100024000000C4010008783F000824000020AE
:103E2000DC070000E00100081C0000004300000067
:103E3000F8FFFFFF0C0000000E0000000F00000064
:103E40002E0000001001000043000000F8FFFFFFFB
:103E5000004040404040404040404141414141409D
:103E60004040404040404040404040404040404052
:103E700040050202020202020202020202020202E1
:103E800002202020202020202020200202020202E6
:103E9000020290909090909010101010101010103E
:103EA000101010101010101010101010020202024A
:103EB000020288888888888808080808080808088E
:103EC000080808080808080808080808020202028A
:103ED00040000000000000000000000000000000A2
:103EE00000000000000000000000000000000000D2
:103EF00000000000000000000000000000000000C2
:103F000000000000000000000000000000000000B1
:103F100000000000000000000000000000000000A1
:103F20000000000000000000000000000000000091
:103F30000000000000000000000000000000000081
:103F40000000000000000000000000000000000071
:103F50000000000000000000000000000024F40049
:103F600001000000100000000000000010111213FA
:083F7000141516171819202181
:040000050800018965
:00000001FF
